{
  "_format": "hh-sol-artifact-1",
  "contractName": "MultiHopSwapers",
  "sourceName": "contracts/MultiHopSwapToken.sol",
  "abi": [
    {
      "inputs": [],
      "stateMutability": "nonpayable",
      "type": "constructor"
    },
    {
      "inputs": [],
      "name": "DAI",
      "outputs": [
        {
          "internalType": "address",
          "name": "",
          "type": "address"
        }
      ],
      "stateMutability": "view",
      "type": "function"
    },
    {
      "inputs": [],
      "name": "USDC",
      "outputs": [
        {
          "internalType": "address",
          "name": "",
          "type": "address"
        }
      ],
      "stateMutability": "view",
      "type": "function"
    },
    {
      "inputs": [],
      "name": "WETH9",
      "outputs": [
        {
          "internalType": "address",
          "name": "",
          "type": "address"
        }
      ],
      "stateMutability": "view",
      "type": "function"
    },
    {
      "inputs": [],
      "name": "fees",
      "outputs": [
        {
          "internalType": "uint24",
          "name": "",
          "type": "uint24"
        }
      ],
      "stateMutability": "view",
      "type": "function"
    },
    {
      "inputs": [],
      "name": "iswapRouter",
      "outputs": [
        {
          "internalType": "contract ISwapRouter",
          "name": "",
          "type": "address"
        }
      ],
      "stateMutability": "view",
      "type": "function"
    },
    {
      "inputs": [
        {
          "internalType": "uint256",
          "name": "amountIn",
          "type": "uint256"
        }
      ],
      "name": "swapExactInputMultihop",
      "outputs": [
        {
          "internalType": "uint256",
          "name": "amountOut",
          "type": "uint256"
        }
      ],
      "stateMutability": "nonpayable",
      "type": "function"
    },
    {
      "inputs": [
        {
          "internalType": "uint256",
          "name": "amountOut",
          "type": "uint256"
        },
        {
          "internalType": "uint256",
          "name": "amountInMaximum",
          "type": "uint256"
        }
      ],
      "name": "swapExactOutputMultihop",
      "outputs": [
        {
          "internalType": "uint256",
          "name": "amountIn",
          "type": "uint256"
        }
      ],
      "stateMutability": "nonpayable",
      "type": "function"
    }
  ],
  "bytecode": "0x608060405234801561001057600080fd5b50600080546001600160a01b03191673e592427a0aece92de3edee1f18e0157c058615641790556109b3806100466000396000f3fe608060405234801561001057600080fd5b506004361061007d5760003560e01c80639af1d35a1161005b5780639af1d35a146100c8578063af470b5d146100dd578063e0bab4c4146100e5578063edd83557146100ed5761007d565b80633b85cf6a146100825780634aa4a4fc146100ab57806389a30271146100c0575b600080fd5b610095610090366004610818565b610100565b6040516100a29190610974565b60405180910390f35b6100b36102da565b6040516100a29190610936565b6100b36102f2565b6100d061030a565b6040516100a29190610964565b6100b3610310565b6100b361031f565b6100956100fb3660046107e8565b610337565b600061012273c02aaa39b223fe8d0a0e5c4f27ead9083c756cc23330856104b1565b60005461014e9073c02aaa39b223fe8d0a0e5c4f27ead9083c756cc2906001600160a01b031684610651565b6040805160a08101909152600090806101ad736b175474e89094c44da98b954eedeac495271d0f606473a0b86991c6218b36c1d19d4a2e9eb0ce3606eb48610bb873c02aaa39b223fe8d0a0e5c4f27ead9083c756cc260c087016108cc565b60408051808303601f1901815291815290825233602083015242828201526060820187905260809091018590526000805491517ff28c0498000000000000000000000000000000000000000000000000000000008152929350916001600160a01b039091169063f28c04989061022790859060040161094a565b602060405180830381600087803b15801561024157600080fd5b505af1158015610255573d6000803e3d6000fd5b505050506040513d601f19601f820116820180604052508101906102799190610800565b9050838110156102d257600080546102b09173c02aaa39b223fe8d0a0e5c4f27ead9083c756cc2916001600160a01b031690610651565b6102d273c02aaa39b223fe8d0a0e5c4f27ead9083c756cc230338488036104b1565b949350505050565b73c02aaa39b223fe8d0a0e5c4f27ead9083c756cc281565b73a0b86991c6218b36c1d19d4a2e9eb0ce3606eb4881565b610bb881565b6000546001600160a01b031681565b736b175474e89094c44da98b954eedeac495271d0f81565b600061035973c02aaa39b223fe8d0a0e5c4f27ead9083c756cc23330856104b1565b6000546103859073c02aaa39b223fe8d0a0e5c4f27ead9083c756cc2906001600160a01b031684610651565b6040805160a08101909152600090806103e473c02aaa39b223fe8d0a0e5c4f27ead9083c756cc2610bb873a0b86991c6218b36c1d19d4a2e9eb0ce3606eb486064736b175474e89094c44da98b954eedeac495271d0f60c087016108cc565b60408051808303601f1901815291815290825233602083015242828201526060820186905260006080909201829052815490517fc04b8d5900000000000000000000000000000000000000000000000000000000815292935090916001600160a01b039091169063c04b8d599061045f90859060040161094a565b602060405180830381600087803b15801561047957600080fd5b505af115801561048d573d6000803e3d6000fd5b505050506040513d601f19601f820116820180604052508101906102d29190610800565b604080516001600160a01b0385811660248301528481166044830152606480830185905283518084039091018152608490920183526020820180517bffffffffffffffffffffffffffffffffffffffffffffffffffffffff167f23b872dd00000000000000000000000000000000000000000000000000000000178152925182516000948594938a169392918291908083835b602083106105635780518252601f199092019160209182019101610544565b6001836020036101000a0380198251168184511680821785525050505050509050019150506000604051808303816000865af19150503d80600081146105c5576040519150601f19603f3d011682016040523d82523d6000602084013e6105ca565b606091505b50915091508180156105f85750805115806105f857508080602001905160208110156105f557600080fd5b50515b610649576040805162461bcd60e51b815260206004820152600360248201527f5354460000000000000000000000000000000000000000000000000000000000604482015290519081900360640190fd5b505050505050565b604080516001600160a01b038481166024830152604480830185905283518084039091018152606490920183526020820180517bffffffffffffffffffffffffffffffffffffffffffffffffffffffff167f095ea7b3000000000000000000000000000000000000000000000000000000001781529251825160009485949389169392918291908083835b602083106106fb5780518252601f1990920191602091820191016106dc565b6001836020036101000a0380198251168184511680821785525050505050509050019150506000604051808303816000865af19150503d806000811461075d576040519150601f19603f3d011682016040523d82523d6000602084013e610762565b606091505b5091509150818015610790575080511580610790575080806020019051602081101561078d57600080fd5b50515b6107e1576040805162461bcd60e51b815260206004820152600260248201527f5341000000000000000000000000000000000000000000000000000000000000604482015290519081900360640190fd5b5050505050565b6000602082840312156107f9578081fd5b5035919050565b600060208284031215610811578081fd5b5051919050565b6000806040838503121561082a578081fd5b50508035926020909101359150565b6001600160a01b03169052565b6000815160a0845280518060a0860152825b8181101561087557602081840181015160c0888401015201610858565b81811115610886578360c083880101525b506020840151915061089b6020860183610839565b6040848101519086015260608085015190860152608093840151938501939093525050601f01601f19160160c00190565b6bffffffffffffffffffffffff19606096871b811682527fffffff000000000000000000000000000000000000000000000000000000000060e896871b8116601484015294871b811660178301529290941b909216602b840152921b909116602e82015260420190565b6001600160a01b0391909116815260200190565b60006020825261095d6020830184610846565b9392505050565b62ffffff91909116815260200190565b9081526020019056fea26469706673582212206caf2d61317923b72c269ff635c814d3a35ce4cf57788f961f600b1452d3bf8d64736f6c63430007060033",
  "linkReferences": {},
  "deployedLinkReferences": {}
}