{
  "_format": "hh-sol-artifact-1",
  "contractName": "SingleSwapToken",
  "sourceName": "contracts/SwapToken.sol",
  "abi": [
    {
      "inputs": [],
      "stateMutability": "nonpayable",
      "type": "constructor"
    },
    {
      "inputs": [],
      "name": "fees",
      "outputs": [
        {
          "internalType": "uint24",
          "name": "",
          "type": "uint24"
        }
      ],
      "stateMutability": "view",
      "type": "function"
    },
    {
      "inputs": [
        {
          "internalType": "address",
          "name": "token0",
          "type": "address"
        },
        {
          "internalType": "address",
          "name": "token1",
          "type": "address"
        },
        {
          "internalType": "uint256",
          "name": "amountIn",
          "type": "uint256"
        }
      ],
      "name": "swapExactInputSingle",
      "outputs": [
        {
          "internalType": "uint256",
          "name": "amountOut",
          "type": "uint256"
        }
      ],
      "stateMutability": "nonpayable",
      "type": "function"
    },
    {
      "inputs": [
        {
          "internalType": "address",
          "name": "token0",
          "type": "address"
        },
        {
          "internalType": "address",
          "name": "token1",
          "type": "address"
        },
        {
          "internalType": "uint256",
          "name": "amountOut",
          "type": "uint256"
        },
        {
          "internalType": "uint256",
          "name": "amountInMaximum",
          "type": "uint256"
        }
      ],
      "name": "swapExactOutputSingle",
      "outputs": [
        {
          "internalType": "uint256",
          "name": "amountIn",
          "type": "uint256"
        }
      ],
      "stateMutability": "nonpayable",
      "type": "function"
    },
    {
      "inputs": [],
      "name": "swapRouter",
      "outputs": [
        {
          "internalType": "contract ISwapRouter",
          "name": "",
          "type": "address"
        }
      ],
      "stateMutability": "view",
      "type": "function"
    }
  ],
  "bytecode": "0x60a060405234801561001057600080fd5b507fe592427a0aece92de3edee1f18e0157c0586156400000000000000000000000060805273e592427a0aece92de3edee1f18e0157c058615646109b26100796000398060d1528061016a528061020352806102425280610278528061030e52506109b26000f3fe608060405234801561001057600080fd5b506004361061004c5760003560e01c80639af1d35a14610051578063bc96faa91461006f578063c31c9c071461008f578063ceb92012146100a4575b600080fd5b6100596100b7565b6040516100669190610963565b60405180910390f35b61008261007d36600461087d565b6100bd565b6040516100669190610973565b610097610240565b604051610066919061093a565b6100826100b2366004610842565b610264565b610bb881565b60006100cb8533308561039e565b6100f6857f000000000000000000000000000000000000000000000000000000000000000084610529565b60408051610100810182526001600160a01b0380881682528681166020830152610bb88284015233606083015242608083015260a0820186905260c08201859052600060e0830181905292517fdb3e21980000000000000000000000000000000000000000000000000000000081529192917f00000000000000000000000000000000000000000000000000000000000000009091169063db3e2198906101a190859060040161094e565b602060405180830381600087803b1580156101bb57600080fd5b505af11580156101cf573d6000803e3d6000fd5b505050506040513d601f19601f820116820180604052508101906101f391906108be565b90508381101561023657610229877f00000000000000000000000000000000000000000000000000000000000000006000610529565b61023687338387036106ab565b9695505050505050565b7f000000000000000000000000000000000000000000000000000000000000000081565b60006102728433308561039e565b61029d847f000000000000000000000000000000000000000000000000000000000000000084610529565b60408051610100810182526001600160a01b0380871682528581166020830152610bb88284015233606083015242608083015260a08201859052600060c0830181905260e083015291517f414bf38900000000000000000000000000000000000000000000000000000000815290917f0000000000000000000000000000000000000000000000000000000000000000169063414bf3899061034390849060040161094e565b602060405180830381600087803b15801561035d57600080fd5b505af1158015610371573d6000803e3d6000fd5b505050506040513d601f19601f8201168201806040525081019061039591906108be565b95945050505050565b604080516001600160a01b0385811660248301528481166044830152606480830185905283518084039091018152608490920183526020820180516001600160e01b03167f23b872dd00000000000000000000000000000000000000000000000000000000178152925182516000948594938a169392918291908083835b6020831061043b5780518252601f19909201916020918201910161041c565b6001836020036101000a0380198251168184511680821785525050505050509050019150506000604051808303816000865af19150503d806000811461049d576040519150601f19603f3d011682016040523d82523d6000602084013e6104a2565b606091505b50915091508180156104d05750805115806104d057508080602001905160208110156104cd57600080fd5b50515b610521576040805162461bcd60e51b815260206004820152600360248201527f5354460000000000000000000000000000000000000000000000000000000000604482015290519081900360640190fd5b505050505050565b604080516001600160a01b038481166024830152604480830185905283518084039091018152606490920183526020820180516001600160e01b03167f095ea7b3000000000000000000000000000000000000000000000000000000001781529251825160009485949389169392918291908083835b602083106105be5780518252601f19909201916020918201910161059f565b6001836020036101000a0380198251168184511680821785525050505050509050019150506000604051808303816000865af19150503d8060008114610620576040519150601f19603f3d011682016040523d82523d6000602084013e610625565b606091505b5091509150818015610653575080511580610653575080806020019051602081101561065057600080fd5b50515b6106a4576040805162461bcd60e51b815260206004820152600260248201527f5341000000000000000000000000000000000000000000000000000000000000604482015290519081900360640190fd5b5050505050565b604080516001600160a01b038481166024830152604480830185905283518084039091018152606490920183526020820180516001600160e01b03167fa9059cbb000000000000000000000000000000000000000000000000000000001781529251825160009485949389169392918291908083835b602083106107405780518252601f199092019160209182019101610721565b6001836020036101000a0380198251168184511680821785525050505050509050019150506000604051808303816000865af19150503d80600081146107a2576040519150601f19603f3d011682016040523d82523d6000602084013e6107a7565b606091505b50915091508180156107d55750805115806107d557508080602001905160208110156107d257600080fd5b50515b6106a4576040805162461bcd60e51b815260206004820152600260248201527f5354000000000000000000000000000000000000000000000000000000000000604482015290519081900360640190fd5b80356001600160a01b038116811461083d57600080fd5b919050565b600080600060608486031215610856578283fd5b61085f84610826565b925061086d60208501610826565b9150604084013590509250925092565b60008060008060808587031215610892578081fd5b61089b85610826565b93506108a960208601610826565b93969395505050506040820135916060013590565b6000602082840312156108cf578081fd5b5051919050565b6001600160a01b0380825116835280602083015116602084015262ffffff60408301511660408401528060608301511660608401526080820151608084015260a082015160a084015260c082015160c08401528060e08301511660e0840152505050565b6001600160a01b0391909116815260200190565b610100810161095d82846108d6565b92915050565b62ffffff91909116815260200190565b9081526020019056fea2646970667358221220ba2e54920cf3a71ee7fd11c88beb2a84a8d56fe5155d241f134f21f37cefd38964736f6c63430007060033",
  "linkReferences": {},
  "deployedLinkReferences": {}
}