{
  "_format": "hh-sol-artifact-1",
  "contractName": "LiquidityExample",
  "sourceName": "contracts/liquidity.sol",
  "abi": [
    {
      "inputs": [],
      "stateMutability": "nonpayable",
      "type": "constructor"
    },
    {
      "inputs": [],
      "name": "DAI",
      "outputs": [
        {
          "internalType": "address",
          "name": "",
          "type": "address"
        }
      ],
      "stateMutability": "view",
      "type": "function"
    },
    {
      "inputs": [],
      "name": "USDC",
      "outputs": [
        {
          "internalType": "address",
          "name": "",
          "type": "address"
        }
      ],
      "stateMutability": "view",
      "type": "function"
    },
    {
      "inputs": [
        {
          "internalType": "uint256",
          "name": "tokenId",
          "type": "uint256"
        }
      ],
      "name": "collectAllFees",
      "outputs": [
        {
          "internalType": "uint256",
          "name": "amount0",
          "type": "uint256"
        },
        {
          "internalType": "uint256",
          "name": "amount1",
          "type": "uint256"
        }
      ],
      "stateMutability": "nonpayable",
      "type": "function"
    },
    {
      "inputs": [
        {
          "internalType": "uint256",
          "name": "tokenId",
          "type": "uint256"
        }
      ],
      "name": "decreaseLiquidityInHalf",
      "outputs": [
        {
          "internalType": "uint256",
          "name": "amount0",
          "type": "uint256"
        },
        {
          "internalType": "uint256",
          "name": "amount1",
          "type": "uint256"
        }
      ],
      "stateMutability": "nonpayable",
      "type": "function"
    },
    {
      "inputs": [
        {
          "internalType": "uint256",
          "name": "",
          "type": "uint256"
        }
      ],
      "name": "deposits",
      "outputs": [
        {
          "internalType": "address",
          "name": "owner",
          "type": "address"
        },
        {
          "internalType": "uint128",
          "name": "liquidity",
          "type": "uint128"
        },
        {
          "internalType": "address",
          "name": "token0",
          "type": "address"
        },
        {
          "internalType": "address",
          "name": "token1",
          "type": "address"
        }
      ],
      "stateMutability": "view",
      "type": "function"
    },
    {
      "inputs": [
        {
          "internalType": "uint256",
          "name": "tokenId",
          "type": "uint256"
        }
      ],
      "name": "getLiquidity",
      "outputs": [
        {
          "internalType": "uint128",
          "name": "Liquidity",
          "type": "uint128"
        }
      ],
      "stateMutability": "view",
      "type": "function"
    },
    {
      "inputs": [
        {
          "internalType": "uint256",
          "name": "tokenId",
          "type": "uint256"
        },
        {
          "internalType": "uint256",
          "name": "amountAdd0",
          "type": "uint256"
        },
        {
          "internalType": "uint256",
          "name": "amountAdd1",
          "type": "uint256"
        }
      ],
      "name": "increaseLiquidityCurrentRange",
      "outputs": [
        {
          "internalType": "uint128",
          "name": "liquidity",
          "type": "uint128"
        },
        {
          "internalType": "uint256",
          "name": "amount0",
          "type": "uint256"
        },
        {
          "internalType": "uint256",
          "name": "amount1",
          "type": "uint256"
        }
      ],
      "stateMutability": "nonpayable",
      "type": "function"
    },
    {
      "inputs": [],
      "name": "mintNewPosition",
      "outputs": [
        {
          "internalType": "uint256",
          "name": "tokenId",
          "type": "uint256"
        },
        {
          "internalType": "uint128",
          "name": "liquidity",
          "type": "uint128"
        },
        {
          "internalType": "uint256",
          "name": "amount0",
          "type": "uint256"
        },
        {
          "internalType": "uint256",
          "name": "amount1",
          "type": "uint256"
        }
      ],
      "stateMutability": "nonpayable",
      "type": "function"
    },
    {
      "inputs": [],
      "name": "nonfungiblePositionManager",
      "outputs": [
        {
          "internalType": "contract INonfungiblePositionManager",
          "name": "",
          "type": "address"
        }
      ],
      "stateMutability": "view",
      "type": "function"
    },
    {
      "inputs": [
        {
          "internalType": "address",
          "name": "operator",
          "type": "address"
        },
        {
          "internalType": "address",
          "name": "",
          "type": "address"
        },
        {
          "internalType": "uint256",
          "name": "tokenId",
          "type": "uint256"
        },
        {
          "internalType": "bytes",
          "name": "",
          "type": "bytes"
        }
      ],
      "name": "onERC721Received",
      "outputs": [
        {
          "internalType": "bytes4",
          "name": "",
          "type": "bytes4"
        }
      ],
      "stateMutability": "nonpayable",
      "type": "function"
    },
    {
      "inputs": [],
      "name": "poolFee",
      "outputs": [
        {
          "internalType": "uint24",
          "name": "",
          "type": "uint24"
        }
      ],
      "stateMutability": "view",
      "type": "function"
    },
    {
      "inputs": [
        {
          "internalType": "uint256",
          "name": "tokenId",
          "type": "uint256"
        }
      ],
      "name": "retriveNft",
      "outputs": [],
      "stateMutability": "nonpayable",
      "type": "function"
    }
  ],
  "bytecode": "0x60a060405234801561001057600080fd5b507fc36442b4a4522e871399cd717abdd847ab11fe8800000000000000000000000060805273c36442b4a4522e871399cd717abdd847ab11fe88611aa46100a26000398061027152806103be52806103fd52806104c9528061068952806106f5528061079a52806108b152806108f752806109795280610aa25280610ba05280610c7a5280610cbb5250611aa46000f3fe608060405234801561001057600080fd5b50600436106100d45760003560e01c80638187b4c511610081578063b02c43d01161005b578063b02c43d0146101cf578063b44a2722146101f2578063e0bab4c4146101fa576100d4565b80638187b4c51461018757806389a302711461019a578063951583c3146101af576100d4565b8063306d9c61116100b2578063306d9c611461012c57806346ce96dd14610144578063617d6d6e14610165576100d4565b80630558ab2a146100d9578063089fe6aa146100ee578063150b7a021461010c575b600080fd5b6100ec6100e73660046115ba565b610202565b005b6100f6610354565b6040516101039190611a0b565b60405180910390f35b61011f61011a3660046114ec565b610359565b60405161010391906117c3565b610134610390565b6040516101039493929190611a24565b6101576101523660046115ba565b610748565b604051610103929190611a48565b610178610173366004611630565b61083e565b604051610103939291906119ea565b6101576101953660046115ba565b610a10565b6101a2610b55565b6040516101039190611757565b6101c26101bd3660046115ba565b610b6d565b60405161010391906119d6565b6101e26101dd3660046115ba565b610c38565b604051610103949392919061178f565b6101a2610c78565b6101a2610c9c565b6000818152602081905260409020546001600160a01b031633146102415760405162461bcd60e51b8152600401610238906117f0565b60405180910390fd5b6040517f42842e0e0000000000000000000000000000000000000000000000000000000081526001600160a01b037f000000000000000000000000000000000000000000000000000000000000000016906342842e0e906102aa9030903390869060040161176b565b600060405180830381600087803b1580156102c457600080fd5b505af11580156102d8573d6000803e3d6000fd5b50505060009182525060208190526040902080547fffffffffffffffffffffffff000000000000000000000000000000000000000090811682556001820180547fffffffffffffffffffffffffffffffff0000000000000000000000000000000016905560028201805482169055600390910180549091169055565b606481565b60006103658685610cb4565b507f150b7a020000000000000000000000000000000000000000000000000000000095945050505050565b6000808080683635c9adc5dea00000633b9aca006103e3736b175474e89094c44da98b954eedeac495271d0f7f000000000000000000000000000000000000000000000000000000000000000084610e7a565b61042273a0b86991c6218b36c1d19d4a2e9eb0ce3606eb487f000000000000000000000000000000000000000000000000000000000000000083610e7a565b6040805161016081018252736b175474e89094c44da98b954eedeac495271d0f815273a0b86991c6218b36c1d19d4a2e9eb0ce3606eb486020820152606481830152620d89e7196060820152620d89e8608082015260a0810184905260c08101839052600060e08201819052610100820152306101208201524261014082015290517f883164560000000000000000000000000000000000000000000000000000000081527f00000000000000000000000000000000000000000000000000000000000000006001600160a01b031690638831645690610506908490600401611928565b608060405180830381600087803b15801561052057600080fd5b505af1158015610534573d6000803e3d6000fd5b505050506040513d601f19601f8201168201806040525081019061055891906115d2565b809750819850829950839a50505050506105e76040518060400160405280600c81526020017f746f6b656e204964203a3a200000000000000000000000000000000000000000815250886040518060400160405280600d81526020017f6c6971756964697479203a3a2000000000000000000000000000000000000000815250896001600160801b0316610ffc565b61065d6040518060400160405280600b81526020017f616d6f756e7430203a3a20000000000000000000000000000000000000000000815250866040518060400160405280600b81526020017f616d6f756e7431203a3a2000000000000000000000000000000000000000000081525087610ffc565b6106673388610cb4565b828510156106d3576106af736b175474e89094c44da98b954eedeac495271d0f7f00000000000000000000000000000000000000000000000000000000000000006000610e7a565b8483036106d1736b175474e89094c44da98b954eedeac495271d0f3383611138565b505b8184101561073f5761071b73a0b86991c6218b36c1d19d4a2e9eb0ce3606eb487f00000000000000000000000000000000000000000000000000000000000000006000610e7a565b83820361073d73a0b86991c6218b36c1d19d4a2e9eb0ce3606eb483383611138565b505b50505090919293565b604080516080810182528281523060208201526001600160801b03818301819052606082015290517ffc6f786500000000000000000000000000000000000000000000000000000000815260009182917f00000000000000000000000000000000000000000000000000000000000000006001600160a01b03169063fc6f7865906107d790849060040161185e565b6040805180830381600087803b1580156107f057600080fd5b505af1158015610804573d6000803e3d6000fd5b505050506040513d601f19601f82011682018060405250810190610828919061160d565b90935091506108388484846112b3565b50915091565b60008381526020819052604081206002015481908190610869906001600160a01b03163330886112fc565b600086815260208190526040902060030154610890906001600160a01b03163330876112fc565b6000868152602081905260409020600201546108d6906001600160a01b03167f000000000000000000000000000000000000000000000000000000000000000087610e7a565b60008681526020819052604090206003015461091c906001600160a01b03167f000000000000000000000000000000000000000000000000000000000000000086610e7a565b6040805160c0810182528781526020810187905280820186905260006060820181905260808201524260a082015290517f219f5d170000000000000000000000000000000000000000000000000000000081526001600160a01b037f0000000000000000000000000000000000000000000000000000000000000000169063219f5d17906109ae9084906004016118e4565b606060405180830381600087803b1580156109c857600080fd5b505af11580156109dc573d6000803e3d6000fd5b505050506040513d601f19601f82011682018060405250810190610a009190611586565b9199909850909650945050505050565b60008181526020819052604081205481906001600160a01b03163314610a485760405162461bcd60e51b815260040161023890611827565b6000838152602081905260408120600101546001600160801b03169060028204905060006040518060a00160405280878152602001836001600160801b0316815260200160008152602001600081526020014281525090507f00000000000000000000000000000000000000000000000000000000000000006001600160a01b0316630c49ccbe826040518263ffffffff1660e01b8152600401610aec91906118a1565b6040805180830381600087803b158015610b0557600080fd5b505af1158015610b19573d6000803e3d6000fd5b505050506040513d601f19601f82011682018060405250810190610b3d919061160d565b9095509350610b4d8686866112b3565b505050915091565b73a0b86991c6218b36c1d19d4a2e9eb0ce3606eb4881565b6040517f99fbab880000000000000000000000000000000000000000000000000000000081526000906001600160a01b037f000000000000000000000000000000000000000000000000000000000000000016906399fbab8890610bd5908590600401611a1b565b6101806040518083038186803b158015610bee57600080fd5b505afa158015610c02573d6000803e3d6000fd5b505050506040513d601f19601f82011682018060405250810190610c26919061165b565b50929c9b505050505050505050505050565b60006020819052908152604090208054600182015460028301546003909301546001600160a01b03928316936001600160801b0390921692918216911684565b7f000000000000000000000000000000000000000000000000000000000000000081565b736b175474e89094c44da98b954eedeac495271d0f81565b60008060007f00000000000000000000000000000000000000000000000000000000000000006001600160a01b03166399fbab88856040518263ffffffff1660e01b8152600401610d059190611a1b565b6101806040518083038186803b158015610d1e57600080fd5b505afa158015610d32573d6000803e3d6000fd5b505050506040513d601f19601f82011682018060405250810190610d56919061165b565b5050505097505050509450945050506040518060800160405280866001600160a01b03168152602001826001600160801b03168152602001846001600160a01b03168152602001836001600160a01b031681525060008086815260200190815260200160002060008201518160000160006101000a8154816001600160a01b0302191690836001600160a01b0316021790555060208201518160010160006101000a8154816001600160801b0302191690836001600160801b0316021790555060408201518160020160006101000a8154816001600160a01b0302191690836001600160a01b0316021790555060608201518160030160006101000a8154816001600160a01b0302191690836001600160a01b031602179055509050505050505050565b604080516001600160a01b038481166024830152604480830185905283518084039091018152606490920183526020820180516001600160e01b03167f095ea7b3000000000000000000000000000000000000000000000000000000001781529251825160009485949389169392918291908083835b60208310610f0f5780518252601f199092019160209182019101610ef0565b6001836020036101000a0380198251168184511680821785525050505050509050019150506000604051808303816000865af19150503d8060008114610f71576040519150601f19603f3d011682016040523d82523d6000602084013e610f76565b606091505b5091509150818015610fa4575080511580610fa45750808060200190516020811015610fa157600080fd5b50515b610ff5576040805162461bcd60e51b815260206004820152600260248201527f5341000000000000000000000000000000000000000000000000000000000000604482015290519081900360640190fd5b5050505050565b61113284848484604051602401808060200185815260200180602001848152602001838103835287818151815260200191508051906020019080838360005b8381101561105357818101518382015260200161103b565b50505050905090810190601f1680156110805780820380516001836020036101000a031916815260200191505b50838103825285518152855160209182019187019080838360005b838110156110b357818101518382015260200161109b565b50505050905090810190601f1680156110e05780820380516001836020036101000a031916815260200191505b5060408051601f198184030181529190526020810180516001600160e01b03167fc67ea9d100000000000000000000000000000000000000000000000000000000179052965061147f95505050505050565b50505050565b604080516001600160a01b038481166024830152604480830185905283518084039091018152606490920183526020820180516001600160e01b03167fa9059cbb000000000000000000000000000000000000000000000000000000001781529251825160009485949389169392918291908083835b602083106111cd5780518252601f1990920191602091820191016111ae565b6001836020036101000a0380198251168184511680821785525050505050509050019150506000604051808303816000865af19150503d806000811461122f576040519150601f19603f3d011682016040523d82523d6000602084013e611234565b606091505b5091509150818015611262575080511580611262575080806020019051602081101561125f57600080fd5b50515b610ff5576040805162461bcd60e51b815260206004820152600260248201527f5354000000000000000000000000000000000000000000000000000000000000604482015290519081900360640190fd5b6000838152602081905260409020805460028201546003909201546001600160a01b0391821692821691166112e9828487611138565b6112f4818486611138565b505050505050565b604080516001600160a01b0385811660248301528481166044830152606480830185905283518084039091018152608490920183526020820180516001600160e01b03167f23b872dd00000000000000000000000000000000000000000000000000000000178152925182516000948594938a169392918291908083835b602083106113995780518252601f19909201916020918201910161137a565b6001836020036101000a0380198251168184511680821785525050505050509050019150506000604051808303816000865af19150503d80600081146113fb576040519150601f19603f3d011682016040523d82523d6000602084013e611400565b606091505b509150915081801561142e57508051158061142e575080806020019051602081101561142b57600080fd5b50515b6112f4576040805162461bcd60e51b815260206004820152600360248201527f5354460000000000000000000000000000000000000000000000000000000000604482015290519081900360640190fd5b80516a636f6e736f6c652e6c6f67602083016000808483855afa5050505050565b80516114ab81611a56565b919050565b8051600281900b81146114ab57600080fd5b80516001600160801b03811681146114ab57600080fd5b805162ffffff811681146114ab57600080fd5b600080600080600060808688031215611503578081fd5b853561150e81611a56565b9450602086013561151e81611a56565b935060408601359250606086013567ffffffffffffffff80821115611541578283fd5b818801915088601f830112611554578283fd5b813581811115611562578384fd5b896020828501011115611573578384fd5b9699959850939650602001949392505050565b60008060006060848603121561159a578283fd5b6115a3846114c2565b925060208401519150604084015190509250925092565b6000602082840312156115cb578081fd5b5035919050565b600080600080608085870312156115e7578384fd5b845193506115f7602086016114c2565b6040860151606090960151949790965092505050565b6000806040838503121561161f578182fd5b505080516020909101519092909150565b600080600060608486031215611644578283fd5b505081359360208301359350604090920135919050565b6000806000806000806000806000806000806101808d8f03121561167d578687fd5b8c516bffffffffffffffffffffffff81168114611698578788fd5b9b506116a660208e016114a0565b9a506116b460408e016114a0565b99506116c260608e016114a0565b98506116d060808e016114d9565b97506116de60a08e016114b0565b96506116ec60c08e016114b0565b95506116fa60e08e016114c2565b94506101008d015193506101208d015192506117196101408e016114c2565b91506117286101608e016114c2565b90509295989b509295989b509295989b565b6001600160a01b03169052565b60020b9052565b62ffffff169052565b6001600160a01b0391909116815260200190565b6001600160a01b039384168152919092166020820152604081019190915260600190565b6001600160a01b0394851681526001600160801b039390931660208401529083166040830152909116606082015260800190565b7fffffffff0000000000000000000000000000000000000000000000000000000091909116815260200190565b6020808252600d908201527f6e6f7420746865206f776e657200000000000000000000000000000000000000604082015260600190565b6020808252600d908201527f4e6f7420746865206f776e657200000000000000000000000000000000000000604082015260600190565b815181526020808301516001600160a01b0316908201526040808301516001600160801b0390811691830191909152606092830151169181019190915260800190565b600060a082019050825182526001600160801b03602084015116602083015260408301516040830152606083015160608301526080830151608083015292915050565b600060c082019050825182526020830151602083015260408301516040830152606083015160608301526080830151608083015260a083015160a083015292915050565b60006101608201905061193c82845161173a565b602083015161194e602084018261173a565b506040830151611961604084018261174e565b5060608301516119746060840182611747565b5060808301516119876080840182611747565b5060a083015160a083015260c083015160c083015260e083015160e0830152610100808401518184015250610120808401516119c58285018261173a565b505061014092830151919092015290565b6001600160801b0391909116815260200190565b6001600160801b039390931683526020830191909152604082015260600190565b62ffffff91909116815260200190565b90815260200190565b9384526001600160801b039290921660208401526040830152606082015260800190565b918252602082015260400190565b6001600160a01b0381168114611a6b57600080fd5b5056fea2646970667358221220741b54ae53b0425e1f9053360b5e997b25f484765175d64a7793e81ab69dbb0664736f6c63430007060033",
  "linkReferences": {},
  "deployedLinkReferences": {}
}